:1000000000308A0019280000213084008313000882
:10001000031918280130F800F701F70B0D28F80B29
:100020000C284A30F700F70B13281628800B0A28F3
:100030000034840183131F30830507309F00A00123
:1000400005182D280A30A10004200130A00720083F
:10005000053C031D2D280130A000851839280A30E1
:10006000A10004200130A002A008031D392804309B
:10007000A00001302002FC3E03185828043E5A28F4
:100080008316860101308312860058288316860164
:1000900002308312860058288316860104308312AA
:1000A0008600582883168601083083128600582857
:1000B000202863000A108A100A1182074028462867
:0400C0004C2852284E
:02400E00303F41
:00000001FF
;PIC16F628A
