:1000000000308A0019280000223084008313000881
:10001000031918280130F800F701F70B0D28F80B29
:100020000C284A30F700F70B13281628800B0A28F3
:100030002F28840183131F308305333083169900E2
:10004000A230980090308312980007309F00203033
:10005000650002306600A100FA30A2000428A10B5E
:100060002C2883168501831285018316860183124D
:10007000860180018C1E3E281A08800083168501A7
:0A0080000008831285003A2863008F
:02400E00303F41
:00000001FF
;PIC16F628A
