:1000000000308A009D2800003530840083130008EA
:10001000031918280130F800F701F70B0D28F80B29
:100020000C284A30F700F70B13281628800B0A28F3
:1000300008002030C000BC01BD01BE01BF0137086F
:10004000FA003608F9003508F8003408F700031004
:10005000771C38283808BC0739080318390FBD0742
:100060003A0803183A0FBE073B0803183B0FBF07B7
:10007000BF0CBE0CBD0CBC0CFA0CF90CF80CF70C48
:10008000C00B27288A110A125C29F701F801F9012F
:10009000FA01C001C101C201C3013F083E043D0491
:1000A0003C04031983282030C4000310B80DB90D97
:1000B000BA0DBB0DC00DC10DC20DC30D3F084302EB
:1000C000031D6C283E084202031D6C283D084102B6
:1000D000031D6C283C084002031C7D283C08C0021C
:1000E0003D08031C3D0FC1023E08031C3E0FC20227
:1000F0003F08031C3F0FC3020314F70DF80DF90D61
:10010000FA0DC40B55284030840083138A110A125B
:1001100072291230B502031C9C28353084008313E9
:10012000FC3080050310800C800C000803199C280B
:100130009A280000800B99280800840183131F303F
:100140008305A301A201A101A001A701A601A501A8
:10015000A40183161F149F141F159F1107309C00C4
:100160000912831294120130940000308316940017
:1001700083129001F80092000030831692008312DF
:1001800097019D018030831687000030860083121E
:10019000871283168801F030831288000230B40081
:1001A0009630B5000420B40BD02883168801831242
:1001B00088010230B4009630B5000420B40BDB286F
:1001C000831688010F30831288000230B400963005
:1001D000B5000420B40BE728831688018312880138
:1001E00083161F109F101F119F111F1383121F17BB
:1001F0009F1383169F1383121F142830F8001F08C3
:10020000C73978049F000930F700F70B0529082942
:100210000B138B138B1B0929AF01AE014E30AD00C0
:100220002030AC00AB01AA010530A900DC30A800E9
:1002300028082C02B0002D08B1002908031C290F42
:10024000B1022E08B2002A08031C2A0FB2022F089E
:10025000B3002B08031C2B0FB3021F151F192E29E7
:100260001E08A301A201A101A00024082002031D71
:10027000452925082102031D452926082202031DC0
:1002800045292708230203199C292308A7002208CF
:10029000A6002108A5002008A400B701B60105307A
:1002A000B5007830B4002308BB002208BA0021084A
:1002B000B9002008B80019287A08B7007908B600F4
:1002C0007808B5007708B4007A08BB007908BA004E
:1002D0007808B9007708B800BF01BE01BD01FF3042
:1002E000BC00452858307707A8007808A9000230DC
:1002F00003180330A9077908AA0000300318013059
:10030000AA077A08AB00003003180130AB072808B1
:100310002C02B0002D08B1002908031C290FB102DE
:100320002E08B2002A08031C2A0FB2022F08B300BD
:100330002B08031C2B0FB30286152908B400B40A3E
:10034000B4030319A729FF30B5008920A029280884
:10035000B500892086113108B400B40AB40303192A
:10036000B529FF30B5008920AE293008B5008920B5
:040370002D296300D0
:02400E00393F38
:00000001FF
;PIC16F877A
;CRC=8E31  CREATED="27-Tem-11 18:10"
