:100000006EEF06F0800ED8B2481A4D6A4E6A44C0B0
:100010004CF048504C1A4350D8B4DCD04B6E006EB4
:100020004750D8B4E0D04B5ED8B481D03DE348C04F
:1000300051F0518E49C050F04AC04FF04E6AD890EE
:10004000513250324F324E324B2EF8D74CAE03D095
:100050004D80DDD04D904B904D88EA6A460EE96E9A
:10006000E9D04D984CBE0AD04BA013D0513250323B
:100070004F324E32002AD8B4C5D00BD051BE0CD06E
:10008000D8904E364F36503651360006D8B4BAD0D6
:10009000F5D74D8C6BD04D9C44C04CF044AE02D093
:1000A000518EA9D0519EA7D047C04BF047C000F059
:1000B00043504B5E44C051F0518E45C050F046C095
:1000C0004FF04E6AD890513250324F324E324B2E52
:1000D000F8D74CAE03D04D829AD04D924B904D8ABA
:1000E000EA6A4A0EE96EA6D04D9A4CBE0AD04BA0E1
:1000F00013D0513250324F324E32002AD8B482D00F
:100100000BD051BE0CD0D8904E364F3650365136AB
:100110000006D8B477D0F5D74D8E28D04D9E48C074
:100120004CF048AE02D0518E66D0519E64D048C08B
:1001300051F0518E49C050F04AC04FF04CAE04D03F
:10014000519E4D8464D04D944E6A4B90EA6A460E9F
:10015000E96E70D04CBE1CD044C04CF04BA006D011
:10016000513250324F324E32002A4CE04EAE0BD05C
:100170004F2A09E1502A07E1512A05E15132503254
:100180004F32002A3FE04DBC86D74DBEC7D71CD0AA
:10019000800E511A51AE04D03AD048C04CF00AD06B
:1001A00044C04CF0515206E1505204E14F5202E17A
:1001B000006A21D051BE08D0D8904E364F36503606
:1001C0005136002EF7D71ED04CAE02D0518E13D030
:1001D000519E11D047C000F048C051F049C050F0C6
:1001E0004AC04FF008D043C000F044C051F045C0B1
:1001F00050F046C04FF051C001F050C002F04FC067
:1002000003F034D0006A016A026A036A2FD04E6A92
:100210004F1E501E511E4E1E4E2A05E14F2A03E16D
:10022000502A01E1512A4DB015D74DB256D74DB4E1
:100230008AD7B3D7EF504F2605E3502A03E1512A5E
:10024000D8B44B80ED52EF50502603E3512AD8B476
:100250004B80ED52EF50EFBE01D0800A5126D8B04E
:100260004B804DB8FED64DBA3FD774D7000C40C076
:1002700047F04450471A47AE05D0D894D89040BEB6
:10028000D8802FD040C047F043C048F03F50485E70
:1002900006E047AE26D0D850010AD86E22D044C01E
:1002A00048F04050485E06E047AE1BD0D850010AE7
:1002B000D86E17D045C048F04150485E06E047AEC2
:1002C00010D0D850010AD86E0CD046C048F0425029
:1002D000485E06E047AE05D0D850010AD86E01D07E
:1002E000D89012EF03F03F50D8B4A5D04B6E4350D6
:1002F000D8B4A1D04B5E05E37F0E4B26D8B09BD07F
:1003000006D0810E4B5ED8A096D0D8B494D04BC006
:1003100000F0016A026A036A4A6A40C049F0498EE5
:1003200041C048F042C047F0190E4B6E4650475E40
:100330000DE2010E485E0AE2495E08E24A5E06E20C
:100340004A2A492A482A4650472628D04550485E1E
:1003500012E2010E495E0FE24A5E0DE24A2A492A84
:10036000455048264650472619E3482A17E1492AAE
:1003700015E14A2A13D044508009495E0EE2010E6D
:100380004A5E0BE24A2A44508009492645504826D5
:10039000E9E3492AE7E14A2AE5D703804B2E01D059
:1003A0000BD0D8904736483649364A36D89003366F
:1003B000023601364C36BAD74CA006D0D89001325E
:1003C000023203324C3202D0000635E04CBE1ED061
:1003D000D8904736483649364A364650475E07E297
:1003E000010E485E04E2495E02E24A5E1AE34550AD
:1003F000485E05E2010E495E02E24A5E12E34450A5
:100400008009495E03E2010E4A5E0BE3032A09E11B
:10041000022A07E1012A05E1002A0DE00132023239
:10042000033240C04BF044504B1A4BAE02D0018E09
:1004300006D0019E04D0006A016A026A036A000CB9
:100440008E0E006E3F50005E40C002F041C001F0D1
:10045000028E005209E0D890025202E1015204E0FB
:1004600002320132002EF7D740AE05D0011E021E27
:10047000012AD8B4022A30EF03F08E0E006E44C079
:1004800001F043C002F0036A015209E102C001F029
:10049000026A080E005E015202E1006A08D0D8909C
:1004A00001BE04D0023601360006F9D7019E4FEF97
:1004B00003F04350D8B471D0006E4750D8B46DD01B
:1004C000002604E3810E002668E204D07F0E005E61
:1004D00064E363E044C04BF048504B1A448E488EAE
:1004E00046504A02F4CF4DF045504902F4CF03F094
:1004F000F3CF4CF04A02F3504D26F4504C22000E3C
:10050000032246504902F3504D26F4504C22000E6F
:10051000026A0322022244504A02F3504C26F4504D
:100520000322000E022244504902F3500326F450E5
:100530000222000E016A012246504802F3504C2666
:10054000F4500322000E0222012245504802F350CB
:100550000326F4500222000E012244504802F350B8
:100560000226F4500122002A01BE05D04C36033683
:10057000023601360006000E4CAE0AD0032A0222D3
:100580000122015005E1025003E1035001E1002A7C
:100590004BBE018E4BAE019E04D0006A016A026A16
:1005A000036A000C206A1F6A1E6A7F0E1D6E7E0E93
:1005B000276E800E286E296A2A6A7A0E2B6E2A0E02
:1005C0002C6EAA0E2D6EAB0E2E6E750E2F6EB60E05
:1005D000306E0B0E316E610E326E6F0E336E500E3A
:1005E000346E0D0E356E010E366E690E376E930E3B
:1005F000386EF20E396E7E0E3A6E620E3B6E0F0E44
:100600003C6E760E3D6EAE0E3E6E14C042F013C0D0
:1006100041F012C040F011C03FF0466A456A446A9A
:10062000436A25D603E31250800A126E14C042F0CA
:1006300013C041F012C040F011C03FF0DB0E466E17
:100640000F0E456E490E446E7F0E436E4CDE03C0A6
:1006500042F002C041F001C040F000C03FF0F0D6CF
:1006600001C021F014C042F013C041F012C040F0AC
:1006700011C03FF0DB0E466E0F0E456E490E446E04
:100680007F0E436E30DE00C03FF001C040F002C07C
:1006900041F003C042F0446A21C043F0EED6D88254
:1006A00042C046F041C045F040C044F03FC043F076
:1006B00003C04AF002C049F001C048F000C047F052
:1006C000A1DC03C026F002C025F001C024F000C068
:1006D00023F0030E2116215203E0215002081AE1F3
:1006E00026C046F025C045F024C044F023C043F0A6
:1006F000DB0E4A6E0F0E496E490E486E7F0E476E36
:10070000D8DE03C01CF002C01BF001C01AF000C00C
:1007100019F063D0212C31D0D882466A456A446AE8
:100720007F0E436E26C04AF025C049F024C048F031
:1007300023C047F067DC00C03FF001C040F002C0BA
:1007400041F003C042F003C046F002C045F001C0D2
:1007500044F000C043F0DB0E4A6E0F0E496E490EA6
:10076000486E7F0E476EA5DE03C01CF002C01BF072
:1007700001C01AF000C019F030D0D88226C046F06F
:1007800025C045F024C044F023C043F04A6A496ABA
:10079000486A7F0E476E36DC00C03FF001C040F073
:1007A00002C041F003C042F003C046F002C045F071
:1007B00001C044F000C043F0DB0E4A6E0F0E496EDC
:1007C000490E486E7F0E476E74DE03C01CF002C0F7
:1007D0001BF001C01AF000C019F0186A176A166AF7
:1007E0007F0E156E1CC046F01BC045F01AC044F0C9
:1007F00019C043F01CC04AF01BC049F01AC048F0B1
:1008000019C047F056DE03C01CF002C01BF001C047
:100810001AF000C019F0226A2250050860E320C0D7
:1008200046F01FC045F01EC044F01DC043F01CC080
:100830004AF01BC049F01AC048F019C047F039DE31
:1008400003C020F002C01FF001C01EF000C01DF068
:100850002250040DF350036A270FE96E000E0320A7
:10086000EA6EEFCF3FF0ECCF40F0ECCF41F0ECCFB1
:1008700042F042C046F041C045F040C044F03FC0A5
:1008800043F020C04AF01FC049F01EC048F01DC010
:1008900047F00FDEEACF40F0E9CF3FF0D89218C022
:1008A00046F017C045F016C044F015C043F003C031
:1008B0004AF002C049F001C048F000C047F002EC25
:1008C00000F040C0EAFF3FC0E9FF03C018F002C0DB
:1008D00017F001C016F000C015F0222A9DD7215054
:1008E000020802E0212C03D01650800A166E15C0B3
:1008F00000F016C001F017C002F018C003F0A5EF19
:1009000004F0D8820CC046F00BC045F00AC044F099
:1009100009C043F0DB0E4A6E0F0E496E490E486E59
:100920007F0E476E02EC00F000C00DF001C00EF02B
:1009300002C00FF003C010F003C014F002C013F0A7
:1009400001C012F000C011F02DD6ACEF06F0165029
:10095000B608166E036A17C01AF0178ED8901732B1
:10096000183219320332023201320032162EF6D713
:100970001AAE0BD0001E011E021E031E002AD8B4A0
:10098000012AD8B4022AD8B4032AD5EF05F0006AA8
:10099000016A026A036A1E6A1F6A206A216A1D5080
:1009A0001C101B101A102CE0200E226ED890163648
:1009B0001736183619361E361F36203621361D508A
:1009C000215C08E11C50205C05E11B501F5C02E12A
:1009D0001A501E5C0FE31A501E5E1B50D8A01B3C21
:1009E0001F5E1C50D8A01C3C205E1D50D8A01D3C92
:1009F000215ED8800036013602360336222ED6D745
:100A0000EA6A1E0EE96E000CF00E936E81840000FF
:100A10008180000081380F0B1D6E81900000818065
:100A2000000081380F0B1C6E8190000E936E1D38F4
:100A3000006EF00E001600501C10016E2EEF05F037
:100A40001D38F00B006E0F0E81140010816E000037
:100A5000818000D08190000C8192D6D701C01CF01B
:100A600001BEFBD71AA081921AB081820000819446
:100A7000000081901B381C6E0F0E1C161CC01DF050
:100A8000DFDF1B500F0B1C6E1D6EDADF000CEA6AF5
:100A9000170EE96EEF500EE0010E016E006A002E97
:100AA000FED7012EFBD74A0E006E002EFED700D0D7
:100AB000EF2EF2D7ADEF05F0010E185CFC0F0FE240
:100AC000040F78EF05F0800E196E09D0C00E196E74
:100AD00006D0900E196E03D0D00E196E00D0010E04
:100AE000175C19261A6A19C01BF0B6DFADEF05F0C6
:100AF000E824F76AF7360B0FF66E0B0EF7220A00A2
:100B0000F550FA6E0800F550F96EC60ACC0AD20A02
:100B1000D80A16500C0A05E0060A0DE0020A12E097
:100B200016D01A6A010E1B6E97DF010E046E020EBC
:100B3000176EADD712D0042A010E176E04C018F03C
:100B4000BBD70BD01A6A100E1B6E86DF06D0010EC3
:100B50001A6E16C01BF080DF00D0000CE9500E6E3C
:100B60000D50106E19E00CC046F00BC045F00AC0E5
:100B700044F009C043F04A6A496A200E486E820E6A
:100B8000476E97DC03C00CF002C00BF001C00AF006
:100B900000C009F0102EE7D70CC019F00BC018F0F8
:100BA0000AC017F009C016F0D2D603C00CF002C07C
:100BB0000BF001C00AF000C009F00CAE0DD00E061B
:100BC0000E8A091E0A1E0B1E0C1E092AD8B40A2AF8
:100BD000D8B40B2AD8B40C2A3B0E156E9A0E146E9C
:100BE000CA0E136E126A0A0E106E0D50D8B40E2A79
:100BF0000CC019F00BC018F00AC017F009C016F0AD
:100C000015C01DF014C01CF013C01BF012C01AF068
:100C1000BEDE0150EFCF09F0ECCF0AF0ECCF0BF0C5
:100C2000ECCF0CF000520FE10D28105C0CE00E50E0
:100C30000CE00F0B105C01E037E20EBE35D00EBCAD
:100C400004D0200E2DD0200E0E160EAA0CD00E9A17
:100C50000D50D8A40E0600500E6E2D0E166E59DFE4
:100C60000E50006E0E6A0D50105C0AE100500E6EC0
:100C70002E0E166E4EDF0E50006E200E0E16000E5B
:100C8000300E0EAA0DD00E9A0D50D8A40E060050AC
:100C90000E6E2D0E166E3DDF0E50006E0E6A300E7B
:100CA000002600C016F035DF15C019F014C018F08A
:100CB00013C017F012C016F01D6A1C6A1B6A0A0ED8
:100CC0001A6E65DE03C015F002C014F001C013F007
:100CD00000C012F0102E8CD7C1EF06F0F86AD09E3B
:100CE000EA6AE96AB896190EAF6EA60EAC6E900E5F
:100CF000AB6E086A076A066A056A7E50E00B7E6E74
:100D0000C198C19A000E7F6E799A79987B6A7A6A47
:100D10009698C69A949A94889496010EC66E000E80
:100D2000C76ECD6ACA6E000ECB6E7E50E00B7E6E33
:100D3000C198C19A000E7F6EC2909484BD6AB76A52
:100D4000B66A010EB96E9482BA6A006E0C6A0B6ABA
:100D50000A6A7E0E096ED5D503C008F002C007F0FE
:100D600001C006F000C005F0890EE96E08C00CF065
:100D700007C00BF006C00AF005C009F0070E0D6EA3
:060D8000EDD6FFD70300D1
:020000040030CA
:0E00000000C1191E008F81000FC00FE00F40DD
:00000001FF
;PIC18F46K20
;CRC=496E  CREATED="26-Nis-11 18:06"
