:1000000001308A008F2900000A108A100A11820725
:1000100028340C3401340634E430E4396132000011
:100020002F30840083130008031924280130F800BE
:10003000F701F70B1928F80B18284A30F700F70BCF
:100040001F282228800B16280800350EF039F700EB
:100050000F30060577048600000006142F280610CE
:1000600008008610F0308316860083120615000003
:10007000061400000608060E0F39B5000610000031
:10008000061400000608060E0F39B40006100030F2
:10009000831686008312350EF700F030F7057708D7
:1000A0003404F8007808B400B41B3228321C8610DF
:1000B000321886140000061100000610330EB4003A
:1000C0000F30B4053408B500252033080F39B400CB
:1000D000B5002520080000308316860083128610A4
:1000E000061106100F30AF0010200130A5002508C2
:1000F000033C031C83280330B50025200530AF00E6
:100100001020A50A77280230B5002520A501250872
:10011000033C031C942825080420A600B2012608ED
:10012000B3003120A50A87288A110A12D12901308B
:100130003002FC3E0318AA28043EB2288030B100E9
:10014000AA28C030B100AA289030B100AA28D03027
:10015000B100AA2801302F02B107B2013108B30063
:10016000312008000A108A100A1182079E28A1284F
:10017000A428A7282E080C3A0319C528063A031903
:10018000CF28023A0319D628DB28B2010130B30088
:1001900031200130A0000230AF001020E128A00A79
:1001A0000130AF002008B0009720E128B2011030E4
:1001B000B3003120E1280130B2002E08B300312015
:1001C000E1280800831603178C170C1400000000A8
:1001D00083120C087F39031926290313A50003177E
:1001E0000D080313A60003170F080313A700250823
:1001F000AE00BA20260803178D0003132708031743
:100200008F0083168C170C140000000083120C0D55
:100210000E0D7F39031926290313A50003170D08B6
:100220000313A60003170F080313A7002508AE0049
:10023000BA20260803178D000313270803178F0021
:100240008D0A03198F0A0313E228031703138A1177
:100250000A12D829AD010408AC002D10831B2D14FF
:10026000260EF038A800A807E23EA900323EAB00F7
:1002700026080F39A907A907AB07E93EAA00AA0774
:10028000AA07250E0F39AA07AB07AA0DAB0DAB09BC
:10029000AB0D25080F39AB07A80D0730A7000A30B2
:1002A000AB07AA03031C5029AA07A903031C54295E
:1002B000A907A803031C5829A807A703031C5C2946
:1002C00027308400831307302C052C1384072B3030
:1002D000040203192C170008F700031D77292C1BB3
:1002E00077292C1A8929AC19772920307A29AC155D
:1002F0002C123030F707A6010408A5002610831B36
:1003000026147708AE00BA20250884008313261827
:100310008317840A2C1F67298A110A12242A840150
:1003200083131F308305A201A101A401A301831639
:100330001F149F141F159F1107309C000912831270
:1003400094120130940000308316940083129001BF
:1003500001308316850000308700091489140911C3
:10036000831207110C3097009D010030F80004380B
:1003700092006330831692008312870183161F1345
:1003800083121F139F1783169F1783121F14831640
:100390001F109F101F119F110C17C03083128B0468
:1003A0006B280C3003178D0000308F000313E228F8
:1003B0000230A500FA30AF001020A50BDA29283052
:1003C000F8001F08C73978049F000630F700F70BC4
:1003D000E72900001F151F19EB2983161E08831239
:1003E000A1001E08A20023082102031DFB292408E6
:1003F00022020319242A2208A4002108A3002208AB
:10040000F9002108F800F90CF80CF90CF80CF90CBB
:1004100078089500F90C790C3039F7001708CF39B6
:1004200077049700B2010130B30031200130AF00F2
:10043000B00097200C30AE00BA20103084002208A3
:10044000A6002108A5002A290530AF001020DF29C9
:02045000630047
:02400E00393F38
:00000001FF
;PIC16F877A
;CRC=7433  CREATED="11-Haz-11 10:43"
