:020000040000FA
:04000000CCEF08F049
:08000800056ED8CF06F0E0CF31
:1000100007F00001E9CF0DF0EACF08F0E1CF09F0D9
:10002000E2CF0AF0D9CF0BF0DACF0CF0F3CF14F017
:10003000F4CF15F0FACF16F000C00FF001C010F0A9
:1000400002C011F003C012F004C013F0A0AA2CEFFC
:1000500000F0A1BA4CEF06F00FC000F010C001F0A4
:1000600011C002F012C003F013C004F00E8E0DC0D8
:10007000E9FF08C0EAFF09C0E1FF0AC0E2FF0BC0C8
:10008000D9FF0CC0DAFF14C0F3FF15C0F4FF16C08F
:10009000FAFF055007C0E0FF06C0D8FF1000F2CFFE
:1000A0000EF0F29EF76AB80FF66E000EF722090006
:1000B000F5500EBEF28E1200280C0106F76ACC0F26
:1000C000F66E000EF7220900F5501200040300003E
:1000D0000000000000000000000000000DAE03D092
:1000E000F2CF0EF0F29EF76AFE0FF66E000EF722C8
:1000F0000900F5500DAE02D00EBEF28E1200400087
:1001000040000000000000000000000000000000AF
:100110000000000000000000000000000000F76A7E
:100120002E0FF66E010EF7220900F55012000600A0
:10013000FF0901A10119002920150025FF75089567
:1001400040810219002920750895409102C0F76A84
:100150005E0FF66E010EF7220900F5501200000046
:10016000F76A700FF66E010EF7220900F5501200C3
:100170002000F76A820FF66E010EF7220900F55093
:100180001200090229000101008032090400000266
:100190000300000009211101000122200007058150
:1001A0000340000A0705010340000A00F76ABC0F7C
:1001B000F66E010EF7220900F55012000100F76AF1
:1001C000CE0FF66E010EF7220900F5501200120153
:1001D000000200000040D804000E000101020001EE
:1001E000F76AF00FF66E010EF7220900F5501200C3
:1001F00004030904080374006D0063003A037400EB
:100200006D0063006F006E00650020002800430051
:100210002900200055007300620048004900440096
:10022000200055007900670075006C0061006D00CA
:100230006100730069002000F2CF0EF0F29EF76AB1
:10024000520FF66E020EF7220900F5500EBEF28E26
:1002500012000C20555342206261676C616E746914
:100260007369200A20202020206B7572756C6475DC
:100270000000F2CF0EF0F29EF76A8C0FF66E020EBF
:10028000F7220900F5500EBEF28E12000C203078D5
:10029000255800006D926994689457EF06F06A6AD9
:1002A000689260EF06F0BD6BBD530AE1036ABD5171
:1002B000270FE96E000E0320EA6EEF6ABD2BF4D71C
:1002C0001A6A010E1B6E196A000C010EC66FC65128
:1002D0000F080EE3700EC625016E0F0E036ED8B028
:1002E000032A01C0E9FF03C0EAFFEF6AC62BEFD77C
:1002F0001E6A1D6A000C400E0401016F050E036F9B
:10030000026B880E006F046B050E076F400E066FC0
:100310000001000C6A6A686A9F0E6B6E390E696E86
:100320006E6AC1DFD2DF160E706E68A602D06896C4
:10033000FCD76D98E0DF030E1F6E66EF06F0698450
:1003400068986D826CEF06F0689C72EF06F070A002
:1003500002D0D1DF7090689A78EF06F0C1C020F02B
:10036000000CFF0E206E000CBF6B26523EE0BF510A
:100370003F083BE31C50FC0F2BE2040FFFEF01F0A2
:10038000036A2550F2CFC1F0F29EF3DEC1BFF28EB8
:10039000C06F1ED0036A2550F2CFC1F0F29EBFDEBF
:1003A000C1BFF28EC06F14D0036A2550F2CFC1F0E6
:1003B000F29E16DFC1BFF28EC06F0AD0036A2550CD
:1003C000F2CFC1F0F29EFBDEC1BFF28EC06F00D053
:1003D000252A2606BF51BF2B036A400FE96E050E82
:1003E0000320EA6EC0C0EFFFC0D7265204E1BF5120
:1003F000400801E0196ABFC0C1F0B0DF000CE8247A
:10040000F76AF736190FF66E040EF7220A00F55058
:10041000FA6E0800F550F96E80039403A803BC033C
:10042000256A1C6A05010351010A000109E0030A5B
:100430000CE0010A0DE0220A22E0030A32E058D063
:10044000120E266E030E1C6E55D0290E266E52D04B
:10045000020E1C6E036A05010251210FE96E000EA7
:100460000320EA6EEFCF25F0036A2550F2CFBFF0EC
:10047000F29E0001B5DEBFBFF28E266E3BD0120E9B
:10048000256E253C01D00BD0036A2550F2CFBFF07A
:10049000F29E6FDEBFBFF28E266E2CD002D061DFDF
:1004A00035D0D89005010435036AF2CFBFF0F29E33
:1004B00000014DDE0900F5CF03F0BFBFF28E256EBF
:1004C000253C01D013D0010E1C6ED89005010435D7
:1004D000036AF2CFBFF0F29E000142DE0900F5CFC1
:1004E00003F0BFBFF28E266E05D002D03ADF0ED0E9
:1004F00038DF0CD00501075305E12650065D02E206
:1005000006C526F0010E196E00012EDF000CBE5349
:1005100004E1040E1F6ED9DEC1D0050E1F6EC16F3F
:10052000800EC06F010EBF6FBF510F08D8A0B6D0AC
:10053000C26B036ABF51F2CFC6F0F29EBFDDC6BFE9
:10054000F28E000A51E0040EC26FD890BF35036AE4
:10055000F2CFC6F0F29EC2DD0900F5CF03F0C6BFB0
:10056000F28EC36F03C0C4F0BF51080DF350010FEA
:10057000016E040E036ED8B0032A01C0E9FF03C068
:10058000EAFFC3C0EFFFBF51080DF350020F016E29
:10059000040E036ED8B0032A01C0E9FF03C0EAFFCE
:1005A000C1C0ECFFED52C0C0EFFFD890BF35036A69
:1005B000F2CFC6F0F29E92DD0900F5CF03F0C6BF80
:1005C000F28EC0270350C123880EC56FC4B1C58108
:1005D000C4B3C583BF51080DF3CF01F0040E01C0B1
:1005E000E9FFEA6EC5C0EFFF036ABF51F2CFC6F064
:1005F000F29E64DDC6BFF28E000A31E0C283BF51B5
:10060000080DF350060F016E040E036ED8B0032AD6
:1006100001C0E9FF03C0EAFFC1C0ECFFED52C0C05A
:10062000EFFFD890BF35036AF2CFC6F0F29E56DDD9
:100630000900F5CF03F0C6BFF28EC0270350C123D7
:10064000BF51080DF350040F016E040E036ED8B0B5
:10065000032A01C0E9FF03C0EAFF400EEF6EC2515A
:10066000060802E10E0EC26F036ABF51F2CFC6F058
:10067000F29E24DDC6BFF28E020801E0C289700E30
:10068000BF25016E0F0E036ED8B0032A01C0E9FF2B
:1006900003C0EAFFC2C0EFFFBF2B46D79AEF03F0BB
:1006A0000501015100010DE0010A14E0020A1EE0FB
:1006B000060A27E0030A2CE00E0A2CE0010A30E0CB
:1006C0003DD01BC040F50501416B020E0001C16F1A
:1006D00045DE36D00501022D06D0010E1B160001A5
:1006E000C16B3CDE02D000013CDE2AD00501022DA8
:1006F00005D01B820001C16B31DE02D0000131DE6A
:100700001FD0020E196E02C524F0C16B27DE18D06F
:1007100087DE16D01AC040F5010EC16F1FDE10D063
:1007200005010251010808E302C51AF002C5BEF036
:100730000001EDD6C16B12DE000102D012DE00D046
:10074000D0EF04F01AC0BEF005010151000107E02E
:100750000A0A0DE0010A2DE00D0A3DE03ED0050138
:10076000406B416B020E0001C16FF8DD38D0BE5303
:100770001EE0010EBE5D036AF2CFC0F0F29E16DDF0
:10078000C0BFF28E016E0501045DD8A002D0000149
:100790000ED0036A0451270FE96E000E0320EA6EA3
:1007A000EFCF40F5010E0001C16FD8DD01D0D9DDDA
:1007B00016D0BE530EE0036A05010451270FE96EFF
:1007C000000E0320EA6E02C5EFFF0001C16BC6DD1B
:1007D00001D0C7DD04D024DE02D0C3DD00D0D0EFCD
:1007E00004F0BF91BEBFBF81BE9FBFA110D0036AFE
:1007F000BE51F2CFC0F0F29E61DCC0BFF28E000AA3
:1008000002E1000E01D0010E016E10D00FD0036A7C
:10081000BE51F2CFC0F0F29E51DCC0BFF28E000A92
:1008200002E1000E01D0010E016E00D088EF04F04D
:10083000BF91BEBFBF81BE9FBFA110D0BE51080DEA
:10084000F350040F016E040E036ED8B0032A01C0EA
:10085000E9FF03C0EAFF880EEF6E09D0BE51080D14
:10086000F3CF01F0040E01C0E9FFEA6EEF6A97EFE3
:1008700004F0BF91BEBFBF81BE9FBFA110D0BE51CB
:10088000080DF350040F016E040E036ED8B0032A56
:1008900001C0E9FF03C0EAFF840EEF6E0AD0BE512B
:1008A000080DF3CF01F0040E01C0E9FFEA6E840EDB
:1008B000EF6E9DEF04F0BF91BEBFBF81BE9FBFA191
:1008C00010D0BE51080DF350040F016E040E036EDC
:1008D000D8B0032A01C0E9FF03C0EAFFEFCFC0F0A0
:1008E0000AD0BE51080DF3CF01F0040E01C0E9FF9C
:1008F000EA6EEFCFC0F0C0AF02D0C0B502D0000E9C
:1009000001D0010E016EA7EF04F004C5BEF069D757
:10091000015229E005010151010A000105E0020A26
:1009200009E0030A0DE01DD004C5BEF081D7C16BFC
:1009300015DD19D004C5BEF09CD7C16B0FDD13D0F7
:100940000501406B416B04C5BEF00001B4D70152F4
:1009500004E0010E0501406F0001020EC16FFEDCD4
:1009600002D0FFDC00D0D0EF04F00501015100D02F
:100970000001F7DC00D0D0EF04F0196A0501005146
:100980007F0B000107E0010A06E0030A05E0230AE5
:1009900004E004D085D6D6D6B8D7E7D7E2DC00D0BD
:1009A000F7EF05F0BE51080DF3CF01F0040E01C0C2
:1009B000E9FFEA6EEFCFC0F0BF51020806E1C0AD1B
:1009C00002D0BF6B02D0010EBF6FBF51030812E10E
:1009D000840EC06FBE51080DF350040F016E040E5B
:1009E000036ED8B0032A01C0E9FF03C0EAFF840EFA
:1009F000EF6E09D0BF2D03D0C80EC06F04D0BF5317
:100A000002E1880EC06F036A010E026EBE51006ED5
:100A100005E0D89002360336002EFBD70250FF0ABD
:100A2000006EFF0E031A00501D1603501E16D890BC
:100A3000BE35036AF2CFC3F0F29E6EEC00F00900FF
:100A4000F5CF03F0C3BFF28EC16F03C0C2F0BE5139
:100A5000080DF350010F016E040E036ED8B0032A87
:100A600001C0E9FF03C0EAFFC1C0EFFFC2B1C0810E
:100A7000C2B3C083BE51080DF3CF01F0040E01C014
:100A8000E9FFEA6EC0C0EFFF000CBE51080DF35045
:100A9000040F016E040E036ED8B0032A01C0E9FFF3
:100AA00003C0EAFFEFCFC2F0C2BF5BD0BE51080D5A
:100AB000F350050F016E040E036ED8B0032A01C077
:100AC000E9FF03C0EAFFBFC0EFFFC151020816E112
:100AD000BE51080DF350040F016E040E036ED8B022
:100AE000032A01C0E9FF03C0EAFFEFCFC2F0C2ADA5
:100AF00002D0C16B02D0010EC16F13D0C1510408E6
:100B000010E1BE51080DF3CF01F0040E01C0E9FF62
:100B1000EA6EEFCFC2F0C2AD03D0010EC16F01D0BB
:100B2000C16BC12D03D0C80EC26F04D0C15302E106
:100B3000880EC26FC0B1C281C0B3C283BE51080D5E
:100B4000F350040F016E040E036ED8B0032A01C0E7
:100B5000E9FF03C0EAFFC2C0EFFF010E016E03D040
:100B600000D0000E016E000CBE5303E17BEC01F0DF
:100B70000FD0036A010E026EBE51006E05E0D890E0
:100B800002360336002EFBD702501D1203501E12F0
:100B9000000CBFC06EFFBF5303E0040E1F6E02D0F7
:100BA000020E1F6ED9EF05F01A6A196A24C0BFF051
:100BB000F0D7E6EF05F0BE5309E1192C03D0B4ECF1
:100BC00001F004D01950020801E1EED7000C6C309E
:100BD000BD6FBD33BD331F0EBD176C523BE1040129
:100BE00000513C0B34081BE1046B0001C6D6203CCD
:100BF00005D0BE6B030EBF6FD5DE0ED0BE6B020EEE
:100C0000BF6FD0DE2050FE0807E0BE6BC06B20C077
:100C1000BFF0040EC16F39DF6D9819D00401005187
:100C20003C0B040815E10001BE6B9EDFBE6B020E9B
:100C3000BF6FB8DE2050FE080AE0203C01D007D08C
:100C4000BE6BC06B20C0BFF0010EC16F1EDF040180
:100C500020D000016C50040812E1FF0E206EBE6B24
:100C6000AADF203C01D008D0BE6BC06B20C0BFF013
:100C7000020EC16F0ADF02D07BEC01F009D06CB428
:100C800004D0BDC0BEF070DF03D0BDC0BEF093DFA6
:100C9000040100017DEF06F01F5201E12FD06852E0
:100CA0002DE068A404D069A402D04AEF01F06DA23F
:100CB00001D024D068A204D069A202D04FEF01F085
:100CC00068A004D069A002D08AEF01F068A804D01F
:100CD00069A802D09FEF01F068AC04D069AC02D0E3
:100CE000A4EF01F068AA04D069AA02D0A7EF01F02E
:100CF00068A604D069A602D06AD76896A19A2CEF9C
:100D000000F0EA6AB10EE96EEF500EE00F0E016ED0
:100D1000006A002EFED7012EFBD78F0E006E002E2C
:100D2000FED70000EF2EF2D7000CB839F00B006EA2
:100D30000F0E81140010816E00008180070E006E7E
:100D4000002EFED700D08190000CF00E936E8184AF
:100D500000008180000081380F0BB86F8190000087
:100D60008180030E006E002EFED700D081380F0B5D
:100D7000B76F8190000E936EB839006EF00E0016BA
:100D80000050B711016EC7EF06F08192DED701C0A7
:100D9000B7F001BEFBD7B5A18192B5B18182000049
:100DA000819400008190B639B76F0F0EB717B7C0A6
:100DB000B8F0BBDFB6510F0BB76FB86FB6DF000CE2
:100DC000000E936E8192819481900F0EB16F99DF26
:100DD000010EAB6FAB51030808E3030EB86FA5DF3C
:100DE000050EB16F8EDFAB2BF5D7020EB86F9DDF0E
:100DF000AB6BAB5103080FE3036AAB51F2CFACF01E
:100E0000F29E4FEC00F0ACBFF28EAD6FB56BB66FDB
:100E1000BCDFAB2BEED719EF07F0FF0E926E000E82
:100E2000936E956E956A8C6AC150C00B0F09C16EA6
:100E3000C7D7E0EF08F06D6A696A080E6F6E9450CC
:100E40003009946E1F6A186AF2BE188EF29E53EC37
:100E500001F018BEF28E1E6A1D6A52EF07F0186A82
:100E6000F2BE188EF29E53EC01F018BEF28E6D6A3F
:100E7000140E6F6E696A6D86010E1F6E43EF07F0E8
:100E80006DB601D0ECD71F2C0BD06DBA09D0686AB3
:100E9000696AA08AC00EF212110E696E020E1F6EF0
:100EA000000CC9D7EDDF1F500208FCE1E1EF08F0AC
:100EB0001A5202E10400FCD7E3EF08F0B22D01D092
:100EC00003D0400EB36F01D0B36B010EB15DB327F9
:100ED000B3518009B46FB56BB66F57DF90EF07F071
:100EE000B0510C0A05E0060A0BE0020A0EE012D02F
:100EF000B56B010EB66F49DF020EB16F02DF10D085
:100F0000010EB16F020EB26FD9D7B56B100EB66F6E
:100F10003CDF06D0010EB56FB0C0B6F036DF00D0B2
:100F2000000CB051080DF350020F016E040E036E59
:100F3000D8B0032A01C0E9FF03C0EAFFECCF03F0F9
:100F4000ED52EFCFB5F003C0B6F0B051080DF3503D
:100F5000010F016E040E036ED8B0032A01C0E9FF31
:100F600003C0EAFFEF50036AB86F03C0B9F0B05195
:100F7000080DF3CF01F0040E01C0E9FFEA6EEFCFD8
:100F8000B7F0B7B1B981B7B3B983B951B45D08E36C
:100F900003E1B351B85D04E2B9C0B4F0B8C0B3F036
:100FA000B96BB86BB951B45D1AE303E1B351B85DE5
:100FB00016E2B5C0E9FFB6C0EAFFEFCFBCF0B2C0A1
:100FC000EAFFB1C0E9FFBCC0EFFFB12BD8B4B22B30
:100FD000B52BD8B4B62BB82BD8B4B92BE3D7B3C044
:100FE00001F0B4C002F000EF08F0ABC0B0F0ADC04B
:100FF000B2F0ACC0B1F0AFC0B4F0AEC0B3F091D7B6
:1010000002C0AFF001C0AEF0186AF2BE188EF29EB8
:10101000ABC0BEF0020EBF6FC5DC18BEF28EAEC014
:1010200001F0AFC002F0FDEF08F0ADBF0FD00F0E22
:10103000006EAC3900160A0E005C03E2300E00268A
:1010400002D0AD51002600C0B0F04ADF0F0EAC1741
:101050000A0EAC5D02E2300E02D0AD9FAD51AC275E
:10106000ACC0B0F03DDF17EF09F0AE6B0C0EB06F07
:1010700037DFAB2BD8B4AC2BACC003F0AB51AB2BF0
:10108000D8B4AC2BE96E03C0EAFFEFCFADF0ACC033
:1010900003F0AB51AB2BD8B4AC2BE96E03C0EAFF25
:1010A000EFCFAFF0AD531CE0AFC0B0F019DF130EBF
:1010B000006E002EFED700D0AE510F0803E10A0EDD
:1010C000B06F0EDFACC003F0AB51AB2BD8B4AC2B80
:1010D000E96E03C0EAFFEFCFAFF0AE2BAD07E2D76A
:1010E0001FEF09F0AB51080DF350040F016E040E11
:1010F000036ED8B0032A01C0E9FF03C0EAFFEFCFB7
:10110000B3F0B3BF45D0AB51080DF350060F016EDD
:10111000040E036ED8B0032A01C0E9FF03C0EAFF42
:10112000ECCF03F0ED52EFCFB4F003C0B5F0B26BEB
:10113000B16BB251AF5D1AE303E1AE51B15D16E29E
:10114000ACC0E9FFADC0EAFFEFCFB8F0B5C0EAFF31
:10115000B4C0E9FFB8C0EFFFB42BD8B4B52BAC2BAB
:10116000D8B4AD2BB12BD8B4B22BE3D7186AF2BEEA
:10117000188EF29EABC0BEF0AFC0C0F0AEC0BFF0E4
:10118000B0C0C1F082DC18BEF28E015003D000D096
:10119000000E016E2FEF09F0F86AD09E0D8EEA6AFC
:1011A000E96AC150C00B0F09C16E070EB46E1F6A09
:1011B000216A040E226E0C0E236E266A286A2DD632
:1011C00070D65EDE75D61A520BE0AB6BAB511CECE1
:1011D00001F0AB2B006EB06F83DE1E0EAB5DF6E14F
:1011E0001A5242E01DA22ED0010EAB6FAD6B290E3C
:1011F000AC6FAF6B410EAE6FF8D62950040A03E016
:10120000010A19E01ED06A6B956A2AC08CFFAB6B8D
:10121000AB5139EC01F0AB2B006EB06F61DE040E08
:10122000AB5DF6E12AC0ACF0370EAD6FFED6010E15
:10123000286E296A07D0AC6B290EAB6F16D7286AC7
:1012400001D000D028520FE0010EAB6FAD6B6A0EDB
:10125000AC6FAF6B410EAE6F020EB06F43D7015251
:0C12600002E0286A296ABCD7BBD7030053
:020000040030CA
:0E000000240E3E1E000381000FC00FE00F40D3
:00000001FF
;PIC18F4550
