:1000000000308A0047280000FF00030E8301A10092
:100010007F08A0000A08A8008A01A00E0408A20018
:100020007708A3007808A4007908A5007A08A6003C
:100030007B08A700831383128C308400801C222845
:100040008C183528220884002308F7002408F800BB
:100050002508F9002608FA002708FB0028088A006E
:10006000210E8300FF0E7F0E09008C140130A907BA
:100070002908643C031D4428A901AA08031D43283C
:100080000130AA004428AA018C108A112228840178
:1000900083131F30830507309F00A901AA01273071
:1000A00091007F30920083168C14C03083128B0035
:1000B0002A0803195F28013A031964286A2883165D
:1000C0008601831286016A28831686010130831215
:0800D00086006A28582863002D
:02400E00303F41
:00000001FF
;PIC16F628A
