:1000000000308A00C32800000A108A100A118207F3
:1000100028340C3401340634403084008313000843
:10002000031920280130F800F701F70B1528F80B09
:1000300014284A30F700F70B1B281E28800B1228C3
:100040000034470EF039F7000F30060577048600BC
:10005000000006142B28061000348610F0306600CD
:1000600006150000061400000608060E0F39C7002A
:1000700006100000061400000608060E0F39C60020
:10008000061000306600470EF700F030F7057708DD
:100090004604F8007808C600C61B2E28441C8610AB
:1000A000441886140000061100000610450EC60014
:1000B0000F30C6054608C700212045080F39C60085
:1000C000C70021200034003066008610061106109B
:1000D0000F30C0000C200130BE003E08033C031C62
:1000E00079280330C70021200530C0000C20BE0A4B
:1000F0006D280230C7002120BE013E08033C031CCE
:100100008A283E080420BF00C4013F08C5002D20F6
:10011000BE0A7D288A110229410B8F28922840307F
:10012000C2009328C20101304002C2074208803851
:10013000C300C4014308C5002D2000343F080C3A19
:100140000319A928063A0319B128023A0319B72856
:10015000BC28C4010130C5002D200230C0000C2095
:10016000C2280130C0000230C1008C20C228C40166
:100170001030C5002D20C2280130C4003F08C50042
:100180002D20C2280034840183131F3083050730DB
:100190009F002030A1006130A2006230A3006330D4
:1001A000A4006430A5006530A6006630A700673063
:1001B000A8006830A9006930AA006A30AB006B3033
:1001C000AC006C30AD006D30AE006E30AF006F3003
:1001D000B0007030B1007130B2007230B3007330D3
:1001E000B4007430B5007530B6007630B7007730A3
:1001F000B8007830B9007930BA007A30BB000130ED
:10020000BD0063280130BC003C081A3C031C2E29A9
:100210003D0B10293C08C0003D08C1008C20172967
:1002200010303C02BE00C0003D08C1008C203C08DC
:100230000F3C03181D290230BD0021303C0784000B
:1002400083130008BE00BF009E200230BE0096301F
:10025000C0000C20BE0B2729BC0A04290C30BF00AB
:0A0260009E200130BD00022963005A
:02400E00613F10
:00000001FF
;PIC16F648A
