:1000000000308A007A280000FF00030E8301A1005F
:100010000A08A0008A010408A2007708A300780853
:10002000A4007908A5007A08A600831383128C30F7
:100030008400801E1D288C1A2E2822088400230884
:10004000F7002408F8002508F9002608FA0020081F
:100050008A00210E8300FF0E7F0E09008A110A120A
:10006000312883168C12831288150130A7072708C0
:10007000053C031D3D280130A700270B43288C1E9B
:100080003F281A08A9002708023C031D4B288C1E94
:1000900047281A08AA002708033C031D53288C1E72
:1000A0004F281A08AB002708043C031D5D288C1E4E
:1000B00057281A08AC000130A800881183168C1646
:1000C00083128C128A110A121D282E308400831389
:1000D0000008031979280130F800F701F70B6E28A2
:1000E000F80B6D284A30F700F70B74287728800B3F
:1000F0006B280800840183131F3083051930831691
:100100009900A6309800903083129800A701013022
:10011000A8009630A900AA00AB00AC0083161F14FB
:100120009F141F159F1107309C000912831294120F
:100130000130940000308316940083129001F8007F
:100140009200003083169200831297019D01C03007
:100150008B0483168C1683128B1183161F109F102D
:100160001F119F111F1383121F179F1383169F13B5
:1001700083121F140F3083168500003086008030F4
:100180008700F03088000910891009118312850159
:1001900086018701880186140230AD00FA30AE0076
:1001A0006520AD0BCE2886100230AD00FA30AE00CF
:1001B0006520AD0BD62886140230AD00FA30AE00B3
:1001C0006520AD0BDE2886100230AD00FA30AE009F
:1001D0006520AD0BE628861483168C168312280B37
:1001E00023290615A8018711071687122130F70069
:1001F000F70BF82829080C1EFB289900FF28002976
:100200000000071287162130F700F70B05292A088E
:100210000C1E082999000C290D29000007168716C5
:100220002130F700F70B12292B080C1E1529990015
:1002300019291A2900002C08963C031D2129871131
:0A024000222987150611EC2863003F
:02400E00393F38
:00000001FF
;PIC16F877A
;CRC=3349  CREATED="25-Tem-11 19:41"
