:1000000000308A00E02800000A108A100A118207D6
:1000100028340C34013406340A108A100A1182077D
:1000200068346F346C34613420346D3475346E341C
:1000300064346F3420343B3429340A3456347334F6
:100040005A3465344E3465345234273430343534C0
:10005000003423308400000803193D280130F800E3
:10006000F701F70B3128F80B30284A30F700F70B6F
:10007000372800000000800B2E2800342A0EF039AB
:10008000F7000F3006057704860000000614000014
:100090000000061000348610F030660006150000DF
:1000A000061400000608060E0F39AA00061000000C
:1000B000061400000608060E0F39A90006100030CD
:1000C00066002A0EF700F030F70577082904F800DB
:1000D0007808A900A91B4C28271C8610271886140D
:1000E0000000061100000610280EA9000F30A90517
:1000F0002908AA003E2028080F39A900AA003E209E
:100100000034003066008610061106100F30A30080
:1001100029200130A1002108033C031C972803304B
:10012000AA003E200530A3002920A10A8B28023016
:10013000AA003E20A1012108033C031CA828210895
:100140000420A200A7012208A8004B20A10A9B2896
:100150008A11EB2822080C3A0319B528063A03192C
:10016000BD28023A0319D328D828A7010130A800D6
:100170004B200230A3002920DE280130A3000230EA
:10018000A400240BC428C7284030A500C828A50116
:1001900001302302A50725088038A600A7012608FC
:1001A000A8004B20DE28A7011030A8004B20DE2835
:1001B0000130A7002208A8004B20DE288A11F2286F
:1001C00084011F30830507309F00831605088312C2
:1001D0001F080C138128A10121080C20A10AF70097
:0E01E000A200AA2818302102031DEC2863009B
:02400E00613F10
:00000001FF
;PIC16F648A
