:1000000000308A0059280000FF00030E8301A10080
:100010007F08A0000A08A8008A01A00E0408A20018
:100020007708A3007808A4007908A5007A08A6003C
:100030007B08A700831383128C308400001F2228C2
:100040000C1B3528220884002308F7002408F80038
:100050002508F9002608FA002708FB0028088A006E
:10006000210E8300FF0E7F0E09001F1F3B28831601
:100070008610831286149F1F41288316061183124F
:1000800006150C138A1122282930840083130008D6
:10009000031958280130F800F701F70B4D28F80B29
:1000A0004C284A30F700F70B53285628800B4A2873
:1000B0007C28840183131F30830507309F000430A0
:1000C0009F00831605080F3885000330F700F70BF3
:1000D000672883121F080C1383160C17C030831275
:1000E0008B048316861083128610831606118312E2
:0C00F00006116430A90044287128630048
:02400E00303F41
:00000001FF
;PIC16F628A
