:1000000000308A00D32800000A108A100A118207E3
:1000100028340C34013406340A108A100A1182077D
:100020004D344134523443344F34533400340A1085
:100030008A100A1182070C3400342530840083139F
:100040000008031931280130F800F701F70B2628C2
:10005000F80B25284A30F700F70B2C282F28800BA7
:10006000232800342C0EF039F7000F3006057704F2
:100070008600000006143C28061000348610F0307C
:10008000660006150000061400000608060E0F396B
:10009000AC0006100000061400000608060E0F391A
:1000A000AB000610003066002C0EF700F030F705AC
:1000B00077082B04F8007808AB00AB1B3F28291CFD
:1000C00086102918861400000611000006102A0E5A
:1000D000AB000F30AB052B08AC0032202A080F39DB
:1000E000AB00AC00322000340030660086100611F0
:1000F00006100F30A5001D200130A3002308033C8B
:10010000031C8A280330AC0032200530A5001D20D6
:10011000A30A7E280230AC003220A3012308033C4E
:10012000031C9B2823080420A400A9012408AA007A
:100130003E20A30A8E288A11DD28260BA028A3289A
:100140004030A700A428A70101302502A7072708EF
:100150008038A800A9012808AA003E2000342408FD
:100160000C3A0319BA28063A0319C228023A0319AD
:10017000C728CC28A9010130AA003E200230A500E2
:100180001D20D2280130A500A6009D20D228A9015B
:100190001030AA003E20D2280130A9002408AA006D
:1001A0003E20D2280034840183131F30830507309A
:1001B0009F000130A100A20074282208A500210898
:1001C000A6009D20A30123080C2000380319EC2869
:1001D000A30AA400AF20E3289630A5001D20A20AA0
:1001E000A21BFF282208103C0318FF28F830A200A9
:1001F000A10A2108023C0318FF280130A100A30135
:1002000023081720003803190929A30AA400AF20E6
:060210000029DD28630057
:02400E00613F10
:00000001FF
;PIC16F648A
