:10000000BDEF02F0F76A140FF66E000EF72209003A
:10001000F5501200280C0106EA6A210EE96EEF5035
:100020000EE0010E016E006A002EFED7012EFBD7F6
:100030004A0E006E002EFED700D0EF2EF2D7000C35
:100040002738F00B006E0F0E81140010816E000037
:10005000818000D08190000CF00E936E81840000AE
:100060008180000081380F0B276E81900000818015
:10007000000081380F0B266E8190000E936E27389A
:10008000006EF00E001600502610016E4AEF00F0D0
:100090008192E2D701C026F001BEFBD724A0819255
:1000A00024B0818200008194000081902538266E62
:1000B0000F0E261626C027F0C3DF25500F0B266E25
:1000C000276EBEDF000C000E936E819281948190AA
:1000D0000F0E216EA1DF010E136E1350030808E30B
:1000E000030E276EADDF050E216E96DF132AF5D7BE
:1000F000020E276EA5DF136A1350030809E3036A93
:10010000135080DF146E246A256EC2DF132AF4D7E1
:10011000F6EF02F0176A1750030826E3175014246D
:10012000016E000E152001C0E9FFEA6EEFCF16F058
:1001300017501324186EAA6A18C0A9FF16C0A8FF8A
:10014000A69CA69EA684F250006EF29E0F01550E4C
:10015000A76EAA0EA76EA682A6B2FED7A6940050DE
:10016000F212172A0001D7D7000C010E225CFC0FF7
:100170000FE2040FD0EF00F0800E236E09D0C00E06
:10018000236E06D0900E236E03D0D00E236E00D0C7
:10019000010E215C2326246A23C025F079DF000CA0
:1001A000E824F76AF736BB0FF66E010EF7220A0055
:1001B000F550FA6E0800F550F96E78017E01840161
:1001C0008A01176A175003081CE313501724186E8E
:1001D000F2CF19F0F29EAA6A18C0A9FFA69CA69EAB
:1001E000A680A85019BEF28E166E17501424016E08
:1001F000000E152001C0E9FFEA6E16C0EFFF172AB6
:10020000E1D7000C2050D8B471D0006E2450D8B47F
:100210006DD0002604E3810E002668E204D07F0E34
:10022000005E64E363E021C028F02550281A218E87
:10023000258E23502702F4CF2AF022502602F4CF35
:1002400003F0F3CF29F02702F3502A26F450292295
:10025000000E032223502602F3502A26F4502922AE
:10026000000E026A0322022221502702F35029269F
:10027000F4500322000E022221502602F3500326DE
:10028000F4500222000E016A012223502502F3508D
:100290002926F4500322000E0222012222502502B8
:1002A000F3500326F4500222000E012221502502B1
:1002B000F3500226F4500122002A01BE05D029364F
:1002C0000336023601360006000E29AE0AD0032A94
:1002D00002220122015005E1025003E1035001E135
:1002E000002A28BE018E28AE019E04D0006A016A51
:1002F000026A036A12EF02F02050B608206E036A09
:1003000021C024F0218ED8902132223223320332B0
:10031000023201320032202EF6D724AE0BD0001E5E
:10032000011E021E031E002AD8B4012AD8B4022AD4
:10033000D8B4032A25EF02F0006A016A026A036A50
:10034000286A296A2A6A2B6A275026102510241049
:100350002CE0200E2C6ED890203621362236233603
:10036000283629362A362B3627502B5C08E12650B2
:100370002A5C05E12550295C02E12450285C0FE34A
:100380002450285E2550D8A0253C295E2650D8A0B0
:10039000263C2A5E2750D8A0273C2B5ED88000360A
:1003A0000136023603362C2ED6D7EA6A280EE96EBD
:1003B000000C20500C0A05E0060A0DE0020A12E0CB
:1003C00016D0246A010E256E63DE010E0A6E020E3F
:1003D000216E22DE12D00A2A010E216E0AC022F0FE
:1003E000C4DE0BD0246A100E256E52DE06D0010E3C
:1003F000246E20C025F04CDE00D0000CE950186EB1
:1004000017501A6E19E016C023F015C022F014C060
:1004100021F013C020F0276A266A200E256E820E76
:10042000246EF0D603C016F002C015F001C014F01F
:1004300000C013F01A2EE7D716C023F015C022F023
:1004400014C021F013C020F057D703C016F002C02B
:1004500015F001C014F000C013F016AE0DD0180650
:10046000188A131E141E151E161E132AD8B4142A19
:10047000D8B4152AD8B4162A3B0E1F6E9A0E1E6EDB
:10048000CA0E1D6E1C6A0A0E1A6E1750D8B4182AAE
:1004900016C023F015C022F014C021F013C020F0C4
:1004A0001FC027F01EC026F01DC025F01CC024F080
:1004B00043DF0150EFCF13F0ECCF14F0ECCF15F089
:1004C000ECCF16F000520FE117281A5C0CE0185020
:1004D0000CE00F0B1A5C01E037E218BE35D018BCF7
:1004E00004D0200E2DD0200E181618AA0CD0189A61
:1004F0001750D8A418060050186E2D0E206E59DF24
:100500001850006E186A17501A5C0AE10050186EF5
:100510002E0E206E4EDF1850006E200E1816000EA4
:10052000300E18AA0DD0189A1750D8A418060050EB
:10053000186E2D0E206E3DDF1850006E186A300EBA
:10054000002600C020F035DF1FC023F01EC022F0BF
:100550001DC021F01CC020F0276A266A256A0A0EF9
:10056000246EEADE03C01FF002C01EF001C01DF0C1
:1005700000C01CF01A2E8CD7000CF86AD09EEA6AD4
:10058000E96AB896190EAF6EA60EAC6E900EAB6E01
:100590007E50E00B7E6EC198C19A000E7F6E799AF4
:1005A00079987B6A7A6A046A056A9698C69A949AD8
:1005B00094889496010EC66E000EC76ECD6ACA6E00
:1005C000000ECB6E7E50E00B7E6EC198C19A000E7D
:1005D0007F6EC2909484BD6AB76AB66A010EB96E26
:1005E0009482BA6A006EFF0E956E6DD5958083B0C9
:1005F00010D0640E216E10DD3A0E0E6E380E0D6EA8
:10060000710E0C6E830E0B6E136A156A0B0E146E50
:1006100081DD958283B219D0640E216EFDDC010E5E
:10062000216E226EA2DD136A156A0F0E146EC9DDEB
:10063000890EE96E12C016F011C015F010C014F04A
:100640000FC013F0060E176ED9DE958483B411D057
:10065000640E216EE1DC700E0E6E020E0D6EC00E89
:100660000C6E820E0B6E040E136E156A0B0E146E5A
:1006700051DD958683B61BD0640E216ECDDC010E54
:10068000216E020E226E71DD040E136E156A0F0EBE
:10069000146E97DD890EE96E12C016F011C015F0C8
:1006A00010C014F00FC013F0060E176EA7DE9ED711
:0206B000030045
:020000040030CA
:0E00000000C1191E008F81000FC00FE00F40DD
:00000001FF
;PIC18F46K20
;CRC=B8A9  CREATED="03-May-11 21:38"
