:1000000000308A0019280000213084008313000882
:10001000031918280130F800F701F70B0D28F80B29
:100020000C284A30F700F70B13281628800B0A28F3
:100030000800840183131F30830507309F00831657
:100040008601831286014B30A100042083168601AD
:100050000830831286004B30A100042083168601ED
:10006000831286014B30A1000420831686010830DC
:10007000831286004B30A100042083168601831270
:1000800086014B30A10004208316860108308312BC
:1000900086004B30A100042083168601831286015E
:1000A0004B30A1000420831686010830831286009D
:1000B0004B30A100042083168601831286014B3049
:1000C000A1000420831686010830831286004B307D
:1000D000A100042083168601831286014B30A10003
:1000E0000420831686011030831286004B30A10055
:1000F000042083168601831286014B30A100042060
:10010000831686011030831286004B30A100042034
:1001100083168601831286014B30A10004208316CA
:1001200086011030831286004B30A1000420831614
:100130008601831286014B30A100042083168601BC
:100140001030831286004B30A100042083168601F4
:10015000831286014B30A1000420831686011030E3
:0E016000831286004B30A10004201F2863008C
:02400E00103F61
:00000001FF
;PIC16F628A
;CRC=686C  CREATED="23-Haz-12 23:28"
