:1000000000308A00E12800000A108A100A118207D5
:1000100028340C34013406342730840000080319D6
:1000200020280130F800F701F70B1428F80B1328EB
:100030004A30F700F70B1A2800000000800B112847
:1000400000342F0EF039F7000F30080577048800D0
:10005000000008140000000008100034F03083167F
:100060008800831208150000081400000808080E14
:100070000F39AF0008100000081400000808080E2F
:100080000F39AE00081000308316880083122F0E3F
:10009000F700F030F70577082E04F80000348810D8
:1000A0002E207808AE00AE1B50282C1C88102C186F
:1000B000881400000811000008102D0EAE000F304B
:1000C000AE052E08AF0021202D080F39AE00AF007D
:1000D0002120003400308316880083128810081114
:1000E00008100F30A7000C200130A5002508033CA4
:1000F000031C82280330AF0021200530A7000C200C
:10010000A50A76280230AF002120A5012508033C6E
:10011000031C932825080420A600AC012608AD0086
:100120004F20A50A86288A110A12F928290B992836
:100130009C284030AA009D28AA0101302802AA0765
:100140002A088038AB00AC012B08AD004F200034EA
:1001500026080C3A0319B328063A0319BB28023AB9
:100160000319C128C628AC010130AD004F20023070
:10017000A7000C20CC280130A8000230A90096204E
:10018000CC28AC011030AD004F20CC280130AC00A1
:100190002608AD004F20CC2800342508A8002608EA
:1001A000A90096202E207808A800A81BD228881421
:1001B0002E207808A70088102708F8008A110A1254
:1001C0002C2984011F3083051930831699002630AD
:1001D000980090308312980083161F149F141F15E7
:1001E0009F1104308312A1000230A200A301A401D8
:1001F0006A280C30A600A8205A30A600A8203D305E
:10020000A600A8207830A600A8202B30A600A820A1
:100210007930A600A8202030A600A8203D30A600F6
:10022000A8203E30A600A8205A30A600A8203D30C5
:10023000A600A8200B30A8000130A90096202208B3
:100240002107A30030302307A500A600A8200B300B
:10025000A5000130A600CD287808A4000B30A80026
:100260000230A90096202408A600A82036296300A1
:02400E007A3FF7
:00000001FF
;PIC16F877
