:1000000000308A0047280000FF00030E8301A10092
:100010007F08A0000A08A8008A01A00E0408A20018
:100020007708A3007808A4007908A5007A08A6003C
:100030007B08A700831383128B1E20280B193328FB
:10004000220884002308F7002408F8002508F90096
:100050002608FA002708FB0028088A00210E8300E2
:10006000FF0E7F0E09000B11D93081000130A90766
:100070002908643C031D4428A901AA08031D43283C
:100080000130AA004428AA010B118A1120288401FA
:1000900083131F30830507309F00A901AA01D930BF
:1000A00081000730F700F71D5E280730810181309D
:1000B000840083130008C0390F3880006400813049
:1000C00084000008C039770480008B16C0308B0490
:1000D0002A0803196F28013A031974287A2883160D
:1000E0008601831286017A288316860101308312E5
:0800F00086007A2868286300ED
:02400E00303F41
:00000001FF
;PIC16F628A
