:1000000000308A00372900000A108A100A1182077E
:1000100028340C34013406340A108A100A1182077D
:10002000563473345A3465344E346534523427347C
:100030003034353400340A108A100A1182070C3427
:10004000003424308400831300080319352801305C
:10005000F800F701F70B2A28F80B29284A30F70097
:10006000F70B30283328800B272800342B0EF0396B
:10007000F7000F30060577048600000006144028BC
:10008000061000348610F0306600061500000614D5
:1000900000000608060E0F39AB000610000006141B
:1000A00000000608060E0F39AA0006100030660090
:1000B0002B0EF700F030F70577082A04F8007808CF
:1000C000AA00AA1B4328281C8610281886140000A2
:1000D000061100000610290EAA000F30AA052A08F2
:1000E000AB00362029080F39AA00AB0036200034B7
:1000F000003066008610061106100F30A400212083
:100100000130A2002208033C031C8E280330AB0000
:1001100036200530A4002120A20A82280230AB003C
:100120003620A2012208033C031C9F282208042039
:10013000A300A8012308A9004220A20A92288A113C
:100140004129250BA428A7284030A600A828A601ED
:1001500001302402A60726088038A700A801270836
:10016000A9004220003423080C3A0319BE28063A9D
:100170000319C628023A0319CB28D028A801013058
:10018000A90042200230A4002120D6280130A4007A
:10019000A500A120D628A8011030A9004220D62809
:1001A0000130A8002308A9004220D62800342108E5
:1001B000A4002008A500A120A20122080C200038DC
:1001C0000319E628A20AA300B320DD289630A40074
:1001D0002120A10AA11BFC282108113C0318FC289E
:1001E000F830A100A00A2008023C0318FC281030B7
:1001F000A1000230A0000729A20122081B2000381C
:1002000003190629A20AA300B320FD28D7288A11C2
:100210004229A1032108803A763C031C182910309A
:10022000A100A00B1829F830A1000130A000352949
:100230002108A4002008A500A120A20122080C206A
:10024000003803192729A20AA300B3201E299630DB
:10025000A4002120A20122081B2000380319342900
:10026000A20AA300B3202B2909298A11432984015A
:1002700083131F30830507309F000130A000A100C9
:0A0280007828D728092941296300D6
:02400E00613F10
:00000001FF
;PIC16F648A
