:1000000002308A000D2A0000FF00030E8301A100C8
:100010000A08A0008A010408A2007708A300780853
:10002000A4007908A5007A08A600831383128C30F7
:100030008400801E1D288C1A2E2822088400230884
:10004000F7002408F8002508F9002608FA0020081F
:100050008A00210E8300FF0E7F0E09008A110A120A
:1000600011290A108A100A11820728340C3401342D
:1000700006340317270EF039F7000F300313060577
:100080007704860000000614452806100800831631
:10009000061086100611831286100F30831606058F
:1000A000F0388600831206150000061400000608CA
:1000B000F700060E0F39F80078080317A70003139E
:1000C00006100000061400000608F700060E0F399F
:1000D000F80078080317A600031306100F308316E4
:1000E0000605860083120317270EF700F030F70588
:1000F00077082604F8007808A600A61F81280313B5
:100100004D2824188628031386100317241C8B28D7
:1001100003138614031700000313061100000610D2
:100120000317250EA6000F30A6052608A700031307
:100130003920031725080F39A600A700031339201B
:10014000080020308400831700080319B528013007
:10015000F800F701F70BAA28F80BA9284A30F70096
:10016000F70BB028B328800BA728080003171F0837
:10017000073A03130319C6280B3A0319DD28063A78
:100180000319E928023A0319012908290130031744
:10019000A000A100210BCD28D0284030A200D128FA
:1001A000A20101302002A20722088038A300A40186
:1001B0002308A5000313472010290317A4010130C9
:1001C000A5000313472002300317A0000313A1204A
:1001D000102901300317A0000230A100210BF128E3
:1001E000F4284030A200F528A20101302002A20725
:1001F00022088038A300A4012308A5000313472088
:1002000010290317A4011030A5000313472010295B
:1002100001300317A4001F08A5000313472010296D
:10022000080083168C128312A812280883168700F0
:1002300083128716A030840083138403840A8C1EE3
:100240001F291A0880000D300002031D1E2980019D
:100250000C3003179F000313B620A03084008313D3
:10026000800803194C2903179E0104089D001E10E5
:10027000831B1E1400089F000313B62003171D08DC
:10028000840083131E188317840A031D4A2903134D
:10029000850A031703133029A8122808831687003C
:1002A000831287128C128A110A121D280D386F3999
:1002B0007410E4346E366537E93C6F3900000F3056
:1002C0008316060586000610861006118312861016
:1002D00006110610A7018B1BA7178B130F300317EE
:1002E000A0000313A120A71B8B1701300317900058
:1002F0001008033C031C96290313A7018B1BA717A7
:100300008B1303300317A70003133920A71B8B1788
:10031000A7018B1BA7178B1305300317A00003132E
:10032000A120A71B8B170317900A78290313A70195
:100330008B1BA7178B1302300317A7000313392059
:10034000A71B8B17031790011008033C031CBD2942
:10035000100803133120031791000313A7018B1B0F
:10036000A7178B130317A4011108A5000313472037
:10037000A71B8B170317900AA42903138A110A12CB
:10038000592A831603178C170C14000000008312DF
:100390000C087F390319092A90000D0891000F08F5
:1003A00092000313A7018B1BA7178B1303171008C9
:1003B0009F000313B620A71B8B17031711088D008E
:1003C00012088F0083168C170C1400000000831293
:1003D0000C0D0E0D7F390319092A90000D089100AC
:1003E0000F0892000313A7018B1BA7178B1303178A
:1003F00010089F000313B620A71B8B1703171108C3
:100400008D0012088F008D0A03198F0A0313C1296A
:10041000031703138A110A12602A840183131F3001
:100420008305193083169900A63098009030831206
:10043000980083161F149F141F159F11FF308312FD
:10044000A8008316091283129412A8122808831692
:100450008700831228162808831687008312A811A4
:100460002808831687000130831294000030831619
:10047000940083129001F8009200003083169200DD
:100480001F149F141F159F1183121F102815280871
:100490008316870083129701A81428088316870003
:1004A00083129D01A81228088316870083128712E1
:1004B0005F29563003178D0001308F000313C129C7
:0C04C000C0308B0483168C16632A630086
:02400E00393F38
:00000001FF
;PIC16F877
;CRC=D413  CREATED="22-Nis-11 00:27"
