:1000000000308A00CB2800000A108A100A118207EB
:1000100028340C34013406342430840000080319D9
:1000200020280130F800F701F70B1428F80B1328EB
:100030004A30F700F70B1A2800000000800B112847
:1000400000342B0EF039F7000F30080577048800D4
:100050000000081400000000081000348810F03080
:100060008316880083120815000008140000080891
:10007000080E0F39AB000810000008140000080833
:10008000080E0F39AA00081000308316880083126A
:100090002B0EF700F030F70577082A04F8007808EF
:1000A000AA00AA1B2F28281C8810281888140000D2
:1000B000081100000810290EAA000F30AA052A080E
:1000C000AB00212029080F39AA00AB002120003401
:1000D00000308316880083128810081108100F3032
:1000E000A4000C200130A3002308033C031C80283B
:1000F0000330AB0021200530A4000C20A30A742893
:100100000230AB002120A3012308033C031C9128EB
:1001100023080420A400A8012408A9002E20A30A73
:1001200084288A110A12FA28250B97289A28403029
:10013000A6009B28A60101302402A60726088038C5
:10014000A700A8012708A9002E20003423080C3A94
:100150000319B128063A0319B928023A0319BF282E
:10016000C428A8010130A9002E200230A4000C20D0
:10017000CA280130A4000230A5009420CA28A80192
:100180001030A9002E20CA280130A8002308A90099
:100190002E20CA28003484011F30830519308316AD
:1001A00099002630980090308312980083161F140F
:1001B0009F141F159F1101308312A000FF30A10072
:1001C000A2018316091283129412A1122108831628
:1001D0008700831221162108831687008312A1113C
:1001E0002108831687000030831294008316940040
:1001F000831268288030831687008312A1000C3098
:10020000A300A6200130A400A500942087150712A2
:100210008C1E08291A08A20022080C1E0D2999001C
:1002200022081B3A03191829163A031920293529DF
:100230000C30A300A6200130A400A5009420392989
:10024000200B2A290230A0000130A4002008A500BC
:10025000942034290130A0000C30A300A6200130E6
:10026000A4002008A500942039292208A300A62074
:100270003929083087061030870608293E2963008F
:02400E007A3FF7
:00000001FF
;PIC16F877
